{
  "_format": "hh-sol-artifact-1",
  "contractName": "MyNFT",
  "sourceName": "contracts/MyNFT.sol",
  "abi": [
    {
      "inputs": [
        {
          "internalType": "string",
          "name": "_baseURI",
          "type": "string"
        }
      ],
      "stateMutability": "nonpayable",
      "type": "constructor"
    },
    {
      "inputs": [
        {
          "internalType": "address",
          "name": "sender",
          "type": "address"
        },
        {
          "internalType": "uint256",
          "name": "tokenId",
          "type": "uint256"
        },
        {
          "internalType": "address",
          "name": "owner",
          "type": "address"
        }
      ],
      "name": "ERC721IncorrectOwner",
      "type": "error"
    },
    {
      "inputs": [
        {
          "internalType": "address",
          "name": "operator",
          "type": "address"
        },
        {
          "internalType": "uint256",
          "name": "tokenId",
          "type": "uint256"
        }
      ],
      "name": "ERC721InsufficientApproval",
      "type": "error"
    },
    {
      "inputs": [
        {
          "internalType": "address",
          "name": "approver",
          "type": "address"
        }
      ],
      "name": "ERC721InvalidApprover",
      "type": "error"
    },
    {
      "inputs": [
        {
          "internalType": "address",
          "name": "operator",
          "type": "address"
        }
      ],
      "name": "ERC721InvalidOperator",
      "type": "error"
    },
    {
      "inputs": [
        {
          "internalType": "address",
          "name": "owner",
          "type": "address"
        }
      ],
      "name": "ERC721InvalidOwner",
      "type": "error"
    },
    {
      "inputs": [
        {
          "internalType": "address",
          "name": "receiver",
          "type": "address"
        }
      ],
      "name": "ERC721InvalidReceiver",
      "type": "error"
    },
    {
      "inputs": [
        {
          "internalType": "address",
          "name": "sender",
          "type": "address"
        }
      ],
      "name": "ERC721InvalidSender",
      "type": "error"
    },
    {
      "inputs": [
        {
          "internalType": "uint256",
          "name": "tokenId",
          "type": "uint256"
        }
      ],
      "name": "ERC721NonexistentToken",
      "type": "error"
    },
    {
      "inputs": [
        {
          "internalType": "address",
          "name": "owner",
          "type": "address"
        }
      ],
      "name": "OwnableInvalidOwner",
      "type": "error"
    },
    {
      "inputs": [
        {
          "internalType": "address",
          "name": "account",
          "type": "address"
        }
      ],
      "name": "OwnableUnauthorizedAccount",
      "type": "error"
    },
    {
      "inputs": [],
      "name": "ReentrancyGuardReentrantCall",
      "type": "error"
    },
    {
      "anonymous": false,
      "inputs": [
        {
          "indexed": true,
          "internalType": "address",
          "name": "owner",
          "type": "address"
        },
        {
          "indexed": true,
          "internalType": "address",
          "name": "approved",
          "type": "address"
        },
        {
          "indexed": true,
          "internalType": "uint256",
          "name": "tokenId",
          "type": "uint256"
        }
      ],
      "name": "Approval",
      "type": "event"
    },
    {
      "anonymous": false,
      "inputs": [
        {
          "indexed": true,
          "internalType": "address",
          "name": "owner",
          "type": "address"
        },
        {
          "indexed": true,
          "internalType": "address",
          "name": "operator",
          "type": "address"
        },
        {
          "indexed": false,
          "internalType": "bool",
          "name": "approved",
          "type": "bool"
        }
      ],
      "name": "ApprovalForAll",
      "type": "event"
    },
    {
      "anonymous": false,
      "inputs": [
        {
          "indexed": true,
          "internalType": "address",
          "name": "previousOwner",
          "type": "address"
        },
        {
          "indexed": true,
          "internalType": "address",
          "name": "newOwner",
          "type": "address"
        }
      ],
      "name": "OwnershipTransferred",
      "type": "event"
    },
    {
      "anonymous": false,
      "inputs": [
        {
          "indexed": true,
          "internalType": "address",
          "name": "from",
          "type": "address"
        },
        {
          "indexed": true,
          "internalType": "address",
          "name": "to",
          "type": "address"
        },
        {
          "indexed": true,
          "internalType": "uint256",
          "name": "tokenId",
          "type": "uint256"
        }
      ],
      "name": "Transfer",
      "type": "event"
    },
    {
      "inputs": [],
      "name": "MAX_SUPPLY",
      "outputs": [
        {
          "internalType": "uint256",
          "name": "",
          "type": "uint256"
        }
      ],
      "stateMutability": "view",
      "type": "function"
    },
    {
      "inputs": [
        {
          "internalType": "address",
          "name": "to",
          "type": "address"
        },
        {
          "internalType": "uint256",
          "name": "tokenId",
          "type": "uint256"
        }
      ],
      "name": "approve",
      "outputs": [],
      "stateMutability": "nonpayable",
      "type": "function"
    },
    {
      "inputs": [
        {
          "internalType": "address",
          "name": "owner",
          "type": "address"
        }
      ],
      "name": "balanceOf",
      "outputs": [
        {
          "internalType": "uint256",
          "name": "",
          "type": "uint256"
        }
      ],
      "stateMutability": "view",
      "type": "function"
    },
    {
      "inputs": [
        {
          "internalType": "uint256",
          "name": "tokenId",
          "type": "uint256"
        }
      ],
      "name": "getApproved",
      "outputs": [
        {
          "internalType": "address",
          "name": "",
          "type": "address"
        }
      ],
      "stateMutability": "view",
      "type": "function"
    },
    {
      "inputs": [
        {
          "internalType": "address",
          "name": "owner",
          "type": "address"
        },
        {
          "internalType": "address",
          "name": "operator",
          "type": "address"
        }
      ],
      "name": "isApprovedForAll",
      "outputs": [
        {
          "internalType": "bool",
          "name": "",
          "type": "bool"
        }
      ],
      "stateMutability": "view",
      "type": "function"
    },
    {
      "inputs": [
        {
          "internalType": "address",
          "name": "to",
          "type": "address"
        }
      ],
      "name": "mint",
      "outputs": [],
      "stateMutability": "payable",
      "type": "function"
    },
    {
      "inputs": [],
      "name": "mintPrice",
      "outputs": [
        {
          "internalType": "uint256",
          "name": "",
          "type": "uint256"
        }
      ],
      "stateMutability": "view",
      "type": "function"
    },
    {
      "inputs": [],
      "name": "name",
      "outputs": [
        {
          "internalType": "string",
          "name": "",
          "type": "string"
        }
      ],
      "stateMutability": "view",
      "type": "function"
    },
    {
      "inputs": [],
      "name": "owner",
      "outputs": [
        {
          "internalType": "address",
          "name": "",
          "type": "address"
        }
      ],
      "stateMutability": "view",
      "type": "function"
    },
    {
      "inputs": [
        {
          "internalType": "uint256",
          "name": "tokenId",
          "type": "uint256"
        }
      ],
      "name": "ownerOf",
      "outputs": [
        {
          "internalType": "address",
          "name": "",
          "type": "address"
        }
      ],
      "stateMutability": "view",
      "type": "function"
    },
    {
      "inputs": [],
      "name": "renounceOwnership",
      "outputs": [],
      "stateMutability": "nonpayable",
      "type": "function"
    },
    {
      "inputs": [
        {
          "internalType": "address",
          "name": "from",
          "type": "address"
        },
        {
          "internalType": "address",
          "name": "to",
          "type": "address"
        },
        {
          "internalType": "uint256",
          "name": "tokenId",
          "type": "uint256"
        }
      ],
      "name": "safeTransferFrom",
      "outputs": [],
      "stateMutability": "nonpayable",
      "type": "function"
    },
    {
      "inputs": [
        {
          "internalType": "address",
          "name": "from",
          "type": "address"
        },
        {
          "internalType": "address",
          "name": "to",
          "type": "address"
        },
        {
          "internalType": "uint256",
          "name": "tokenId",
          "type": "uint256"
        },
        {
          "internalType": "bytes",
          "name": "data",
          "type": "bytes"
        }
      ],
      "name": "safeTransferFrom",
      "outputs": [],
      "stateMutability": "nonpayable",
      "type": "function"
    },
    {
      "inputs": [
        {
          "internalType": "address",
          "name": "operator",
          "type": "address"
        },
        {
          "internalType": "bool",
          "name": "approved",
          "type": "bool"
        }
      ],
      "name": "setApprovalForAll",
      "outputs": [],
      "stateMutability": "nonpayable",
      "type": "function"
    },
    {
      "inputs": [
        {
          "internalType": "string",
          "name": "_newBaseURI",
          "type": "string"
        }
      ],
      "name": "setBaseURI",
      "outputs": [],
      "stateMutability": "nonpayable",
      "type": "function"
    },
    {
      "inputs": [
        {
          "internalType": "bytes4",
          "name": "interfaceId",
          "type": "bytes4"
        }
      ],
      "name": "supportsInterface",
      "outputs": [
        {
          "internalType": "bool",
          "name": "",
          "type": "bool"
        }
      ],
      "stateMutability": "view",
      "type": "function"
    },
    {
      "inputs": [],
      "name": "symbol",
      "outputs": [
        {
          "internalType": "string",
          "name": "",
          "type": "string"
        }
      ],
      "stateMutability": "view",
      "type": "function"
    },
    {
      "inputs": [
        {
          "internalType": "uint256",
          "name": "tokenId",
          "type": "uint256"
        }
      ],
      "name": "tokenURI",
      "outputs": [
        {
          "internalType": "string",
          "name": "",
          "type": "string"
        }
      ],
      "stateMutability": "view",
      "type": "function"
    },
    {
      "inputs": [],
      "name": "totalMinted",
      "outputs": [
        {
          "internalType": "uint256",
          "name": "",
          "type": "uint256"
        }
      ],
      "stateMutability": "view",
      "type": "function"
    },
    {
      "inputs": [
        {
          "internalType": "address",
          "name": "from",
          "type": "address"
        },
        {
          "internalType": "address",
          "name": "to",
          "type": "address"
        },
        {
          "internalType": "uint256",
          "name": "tokenId",
          "type": "uint256"
        }
      ],
      "name": "transferFrom",
      "outputs": [],
      "stateMutability": "nonpayable",
      "type": "function"
    },
    {
      "inputs": [
        {
          "internalType": "address",
          "name": "newOwner",
          "type": "address"
        }
      ],
      "name": "transferOwnership",
      "outputs": [],
      "stateMutability": "nonpayable",
      "type": "function"
    },
    {
      "inputs": [
        {
          "internalType": "uint256",
          "name": "_newPrice",
          "type": "uint256"
        }
      ],
      "name": "updateMintPrice",
      "outputs": [],
      "stateMutability": "nonpayable",
      "type": "function"
    },
    {
      "inputs": [],
      "name": "withdraw",
      "outputs": [],
      "stateMutability": "nonpayable",
      "type": "function"
    }
  ],
  "bytecode": "0x6080604052670de0b6b3a76400006009553480156200001d57600080fd5b50604051620032df380380620032df8339818101604052810190620000439190620003d7565b336040518060400160405280600c81526020017f496e746572766965774e465400000000000000000000000000000000000000008152506040518060400160405280600481526020017f494e4654000000000000000000000000000000000000000000000000000000008152508160009081620000c1919062000673565b508060019081620000d3919062000673565b505050600073ffffffffffffffffffffffffffffffffffffffff168173ffffffffffffffffffffffffffffffffffffffff16036200014b5760006040517f1e4fbdf70000000000000000000000000000000000000000000000000000000081526004016200014291906200079f565b60405180910390fd5b6200015c816200017e60201b60201c565b50600160078190555080600a908162000176919062000673565b5050620007bc565b6000600660009054906101000a900473ffffffffffffffffffffffffffffffffffffffff16905081600660006101000a81548173ffffffffffffffffffffffffffffffffffffffff021916908373ffffffffffffffffffffffffffffffffffffffff1602179055508173ffffffffffffffffffffffffffffffffffffffff168173ffffffffffffffffffffffffffffffffffffffff167f8be0079c531659141344cd1fd0a4f28419497f9722a3daafe3b4186f6b6457e060405160405180910390a35050565b6000604051905090565b600080fd5b600080fd5b600080fd5b600080fd5b6000601f19601f8301169050919050565b7f4e487b7100000000000000000000000000000000000000000000000000000000600052604160045260246000fd5b620002ad8262000262565b810181811067ffffffffffffffff82111715620002cf57620002ce62000273565b5b80604052505050565b6000620002e462000244565b9050620002f28282620002a2565b919050565b600067ffffffffffffffff82111562000315576200031462000273565b5b620003208262000262565b9050602081019050919050565b60005b838110156200034d57808201518184015260208101905062000330565b60008484015250505050565b6000620003706200036a84620002f7565b620002d8565b9050828152602081018484840111156200038f576200038e6200025d565b5b6200039c8482856200032d565b509392505050565b600082601f830112620003bc57620003bb62000258565b5b8151620003ce84826020860162000359565b91505092915050565b600060208284031215620003f057620003ef6200024e565b5b600082015167ffffffffffffffff81111562000411576200041062000253565b5b6200041f84828501620003a4565b91505092915050565b600081519050919050565b7f4e487b7100000000000000000000000000000000000000000000000000000000600052602260045260246000fd5b600060028204905060018216806200047b57607f821691505b60208210810362000491576200049062000433565b5b50919050565b60008190508160005260206000209050919050565b60006020601f8301049050919050565b600082821b905092915050565b600060088302620004fb7fffffffffffffffffffffffffffffffffffffffffffffffffffffffffffffffff82620004bc565b620005078683620004bc565b95508019841693508086168417925050509392505050565b6000819050919050565b6000819050919050565b6000620005546200054e62000548846200051f565b62000529565b6200051f565b9050919050565b6000819050919050565b620005708362000533565b620005886200057f826200055b565b848454620004c9565b825550505050565b600090565b6200059f62000590565b620005ac81848462000565565b505050565b5b81811015620005d457620005c860008262000595565b600181019050620005b2565b5050565b601f8211156200062357620005ed8162000497565b620005f884620004ac565b8101602085101562000608578190505b620006206200061785620004ac565b830182620005b1565b50505b505050565b600082821c905092915050565b6000620006486000198460080262000628565b1980831691505092915050565b600062000663838362000635565b9150826002028217905092915050565b6200067e8262000428565b67ffffffffffffffff8111156200069a576200069962000273565b5b620006a6825462000462565b620006b3828285620005d8565b600060209050601f831160018114620006eb5760008415620006d6578287015190505b620006e2858262000655565b86555062000752565b601f198416620006fb8662000497565b60005b828110156200072557848901518255600182019150602085019450602081019050620006fe565b8683101562000745578489015162000741601f89168262000635565b8355505b6001600288020188555050505b505050505050565b600073ffffffffffffffffffffffffffffffffffffffff82169050919050565b600062000787826200075a565b9050919050565b62000799816200077a565b82525050565b6000602082019050620007b660008301846200078e565b92915050565b612b1380620007cc6000396000f3fe60806040526004361061013f5760003560e01c80636817c76c116100b6578063a22cb4651161006f578063a22cb46514610426578063a2309ff81461044f578063b88d4fde1461047a578063c87b56dd146104a3578063e985e9c5146104e0578063f2fde38b1461051d5761013f565b80636817c76c146103355780636a6278421461036057806370a082311461037c578063715018a6146103b95780638da5cb5b146103d057806395d89b41146103fb5761013f565b806323b872dd1161010857806323b872dd1461023b57806332cb6b0c146102645780633ccfd60b1461028f57806342842e0e146102a657806355f804b3146102cf5780636352211e146102f85761013f565b8062728e461461014457806301ffc9a71461016d57806306fdde03146101aa578063081812fc146101d5578063095ea7b314610212575b600080fd5b34801561015057600080fd5b5061016b60048036038101906101669190611d66565b610546565b005b34801561017957600080fd5b50610194600480360381019061018f9190611deb565b610558565b6040516101a19190611e33565b60405180910390f35b3480156101b657600080fd5b506101bf61063a565b6040516101cc9190611ede565b60405180910390f35b3480156101e157600080fd5b506101fc60048036038101906101f79190611d66565b6106cc565b6040516102099190611f41565b60405180910390f35b34801561021e57600080fd5b5061023960048036038101906102349190611f88565b6106e8565b005b34801561024757600080fd5b50610262600480360381019061025d9190611fc8565b6106fe565b005b34801561027057600080fd5b50610279610800565b604051610286919061202a565b60405180910390f35b34801561029b57600080fd5b506102a4610805565b005b3480156102b257600080fd5b506102cd60048036038101906102c89190611fc8565b61091c565b005b3480156102db57600080fd5b506102f660048036038101906102f1919061217a565b61093c565b005b34801561030457600080fd5b5061031f600480360381019061031a9190611d66565b610957565b60405161032c9190611f41565b60405180910390f35b34801561034157600080fd5b5061034a610969565b604051610357919061202a565b60405180910390f35b61037a600480360381019061037591906121c3565b61096f565b005b34801561038857600080fd5b506103a3600480360381019061039e91906121c3565b610a35565b6040516103b0919061202a565b60405180910390f35b3480156103c557600080fd5b506103ce610aef565b005b3480156103dc57600080fd5b506103e5610b03565b6040516103f29190611f41565b60405180910390f35b34801561040757600080fd5b50610410610b2d565b60405161041d9190611ede565b60405180910390f35b34801561043257600080fd5b5061044d6004803603810190610448919061221c565b610bbf565b005b34801561045b57600080fd5b50610464610bd5565b604051610471919061202a565b60405180910390f35b34801561048657600080fd5b506104a1600480360381019061049c91906122fd565b610bdf565b005b3480156104af57600080fd5b506104ca60048036038101906104c59190611d66565b610c04565b6040516104d79190611ede565b60405180910390f35b3480156104ec57600080fd5b5061050760048036038101906105029190612380565b610c6d565b6040516105149190611e33565b60405180910390f35b34801561052957600080fd5b50610544600480360381019061053f91906121c3565b610d01565b005b61054e610d87565b8060098190555050565b60007f80ac58cd000000000000000000000000000000000000000000000000000000007bffffffffffffffffffffffffffffffffffffffffffffffffffffffff1916827bffffffffffffffffffffffffffffffffffffffffffffffffffffffff1916148061062357507f5b5e139f000000000000000000000000000000000000000000000000000000007bffffffffffffffffffffffffffffffffffffffffffffffffffffffff1916827bffffffffffffffffffffffffffffffffffffffffffffffffffffffff1916145b80610633575061063282610e0e565b5b9050919050565b606060008054610649906123ef565b80601f0160208091040260200160405190810160405280929190818152602001828054610675906123ef565b80156106c25780601f10610697576101008083540402835291602001916106c2565b820191906000526020600020905b8154815290600101906020018083116106a557829003601f168201915b5050505050905090565b60006106d782610e78565b506106e182610f00565b9050919050565b6106fa82826106f5610f3d565b610f45565b5050565b600073ffffffffffffffffffffffffffffffffffffffff168273ffffffffffffffffffffffffffffffffffffffff16036107705760006040517f64a0ae920000000000000000000000000000000000000000000000000000000081526004016107679190611f41565b60405180910390fd5b6000610784838361077f610f3d565b610f57565b90508373ffffffffffffffffffffffffffffffffffffffff168173ffffffffffffffffffffffffffffffffffffffff16146107fa578382826040517f64283d7b0000000000000000000000000000000000000000000000000000000081526004016107f193929190612420565b60405180910390fd5b50505050565b600581565b61080d610d87565b610815611171565b60004790506000811161085d576040517f08c379a0000000000000000000000000000000000000000000000000000000008152600401610854906124a3565b60405180910390fd5b6000610867610b03565b73ffffffffffffffffffffffffffffffffffffffff168260405161088a906124f4565b60006040518083038185875af1925050503d80600081146108c7576040519150601f19603f3d011682016040523d82523d6000602084013e6108cc565b606091505b5050905080610910576040517f08c379a000000000000000000000000000000000000000000000000000000000815260040161090790612555565b60405180910390fd5b505061091a6111b7565b565b61093783838360405180602001604052806000815250610bdf565b505050565b610944610d87565b80600a90816109539190612721565b5050565b600061096282610e78565b9050919050565b60095481565b610977611171565b6005600854106109bc576040517f08c379a00000000000000000000000000000000000000000000000000000000081526004016109b39061283f565b60405180910390fd5b6009543414610a00576040517f08c379a00000000000000000000000000000000000000000000000000000000081526004016109f7906128ab565b60405180910390fd5b60086000815480929190610a13906128fa565b919050555060006008549050610a2982826111c1565b50610a326111b7565b50565b60008073ffffffffffffffffffffffffffffffffffffffff168273ffffffffffffffffffffffffffffffffffffffff1603610aa85760006040517f89c62b64000000000000000000000000000000000000000000000000000000008152600401610a9f9190611f41565b60405180910390fd5b600360008373ffffffffffffffffffffffffffffffffffffffff1673ffffffffffffffffffffffffffffffffffffffff168152602001908152602001600020549050919050565b610af7610d87565b610b0160006111df565b565b6000600660009054906101000a900473ffffffffffffffffffffffffffffffffffffffff16905090565b606060018054610b3c906123ef565b80601f0160208091040260200160405190810160405280929190818152602001828054610b68906123ef565b8015610bb55780601f10610b8a57610100808354040283529160200191610bb5565b820191906000526020600020905b815481529060010190602001808311610b9857829003601f168201915b5050505050905090565b610bd1610bca610f3d565b83836112a5565b5050565b6000600854905090565b610bea8484846106fe565b610bfe610bf5610f3d565b85858585611414565b50505050565b6060610c0f82610e78565b506000610c1a6115c5565b90506000815111610c3a5760405180602001604052806000815250610c65565b80610c4484611657565b604051602001610c5592919061297e565b6040516020818303038152906040525b915050919050565b6000600560008473ffffffffffffffffffffffffffffffffffffffff1673ffffffffffffffffffffffffffffffffffffffff16815260200190815260200160002060008373ffffffffffffffffffffffffffffffffffffffff1673ffffffffffffffffffffffffffffffffffffffff16815260200190815260200160002060009054906101000a900460ff16905092915050565b610d09610d87565b600073ffffffffffffffffffffffffffffffffffffffff168173ffffffffffffffffffffffffffffffffffffffff1603610d7b5760006040517f1e4fbdf7000000000000000000000000000000000000000000000000000000008152600401610d729190611f41565b60405180910390fd5b610d84816111df565b50565b610d8f610f3d565b73ffffffffffffffffffffffffffffffffffffffff16610dad610b03565b73ffffffffffffffffffffffffffffffffffffffff1614610e0c57610dd0610f3d565b6040517f118cdaa7000000000000000000000000000000000000000000000000000000008152600401610e039190611f41565b60405180910390fd5b565b60007f01ffc9a7000000000000000000000000000000000000000000000000000000007bffffffffffffffffffffffffffffffffffffffffffffffffffffffff1916827bffffffffffffffffffffffffffffffffffffffffffffffffffffffff1916149050919050565b600080610e8483611725565b9050600073ffffffffffffffffffffffffffffffffffffffff168173ffffffffffffffffffffffffffffffffffffffff1603610ef757826040517f7e273289000000000000000000000000000000000000000000000000000000008152600401610eee919061202a565b60405180910390fd5b80915050919050565b60006004600083815260200190815260200160002060009054906101000a900473ffffffffffffffffffffffffffffffffffffffff169050919050565b600033905090565b610f528383836001611762565b505050565b600080610f6384611725565b9050600073ffffffffffffffffffffffffffffffffffffffff168373ffffffffffffffffffffffffffffffffffffffff1614610fa557610fa4818486611927565b5b600073ffffffffffffffffffffffffffffffffffffffff168173ffffffffffffffffffffffffffffffffffffffff161461103657610fe7600085600080611762565b6001600360008373ffffffffffffffffffffffffffffffffffffffff1673ffffffffffffffffffffffffffffffffffffffff168152602001908152602001600020600082825403925050819055505b600073ffffffffffffffffffffffffffffffffffffffff168573ffffffffffffffffffffffffffffffffffffffff16146110b9576001600360008773ffffffffffffffffffffffffffffffffffffffff1673ffffffffffffffffffffffffffffffffffffffff168152602001908152602001600020600082825401925050819055505b846002600086815260200190815260200160002060006101000a81548173ffffffffffffffffffffffffffffffffffffffff021916908373ffffffffffffffffffffffffffffffffffffffff160217905550838573ffffffffffffffffffffffffffffffffffffffff168273ffffffffffffffffffffffffffffffffffffffff167fddf252ad1be2c89b69c2b068fc378daa952ba7f163c4a11628f55a4df523b3ef60405160405180910390a4809150509392505050565b6002600754036111ad576040517f3ee5aeb500000000000000000000000000000000000000000000000000000000815260040160405180910390fd5b6002600781905550565b6001600781905550565b6111db8282604051806020016040528060008152506119eb565b5050565b6000600660009054906101000a900473ffffffffffffffffffffffffffffffffffffffff16905081600660006101000a81548173ffffffffffffffffffffffffffffffffffffffff021916908373ffffffffffffffffffffffffffffffffffffffff1602179055508173ffffffffffffffffffffffffffffffffffffffff168173ffffffffffffffffffffffffffffffffffffffff167f8be0079c531659141344cd1fd0a4f28419497f9722a3daafe3b4186f6b6457e060405160405180910390a35050565b600073ffffffffffffffffffffffffffffffffffffffff168273ffffffffffffffffffffffffffffffffffffffff160361131657816040517f5b08ba1800000000000000000000000000000000000000000000000000000000815260040161130d9190611f41565b60405180910390fd5b80600560008573ffffffffffffffffffffffffffffffffffffffff1673ffffffffffffffffffffffffffffffffffffffff16815260200190815260200160002060008473ffffffffffffffffffffffffffffffffffffffff1673ffffffffffffffffffffffffffffffffffffffff16815260200190815260200160002060006101000a81548160ff0219169083151502179055508173ffffffffffffffffffffffffffffffffffffffff168373ffffffffffffffffffffffffffffffffffffffff167f17307eab39ab6107e8899845ad3d59bd9653f200f220920489ca2b5937696c31836040516114079190611e33565b60405180910390a3505050565b60008373ffffffffffffffffffffffffffffffffffffffff163b11156115be578273ffffffffffffffffffffffffffffffffffffffff1663150b7a02868685856040518563ffffffff1660e01b815260040161147394939291906129f7565b6020604051808303816000875af19250505080156114af57506040513d601f19601f820116820180604052508101906114ac9190612a58565b60015b611533573d80600081146114df576040519150601f19603f3d011682016040523d82523d6000602084013e6114e4565b606091505b50600081510361152b57836040517f64a0ae920000000000000000000000000000000000000000000000000000000081526004016115229190611f41565b60405180910390fd5b805160208201fd5b63150b7a0260e01b7bffffffffffffffffffffffffffffffffffffffffffffffffffffffff1916817bffffffffffffffffffffffffffffffffffffffffffffffffffffffff1916146115bc57836040517f64a0ae920000000000000000000000000000000000000000000000000000000081526004016115b39190611f41565b60405180910390fd5b505b5050505050565b6060600a80546115d4906123ef565b80601f0160208091040260200160405190810160405280929190818152602001828054611600906123ef565b801561164d5780601f106116225761010080835404028352916020019161164d565b820191906000526020600020905b81548152906001019060200180831161163057829003601f168201915b5050505050905090565b60606000600161166684611a0f565b01905060008167ffffffffffffffff8111156116855761168461204f565b5b6040519080825280601f01601f1916602001820160405280156116b75781602001600182028036833780820191505090505b509050600082602083010190505b60011561171a578080600190039150507f3031323334353637383961626364656600000000000000000000000000000000600a86061a8153600a858161170e5761170d612a85565b5b049450600085036116c5575b819350505050919050565b60006002600083815260200190815260200160002060009054906101000a900473ffffffffffffffffffffffffffffffffffffffff169050919050565b808061179b5750600073ffffffffffffffffffffffffffffffffffffffff168273ffffffffffffffffffffffffffffffffffffffff1614155b156118cf5760006117ab84610e78565b9050600073ffffffffffffffffffffffffffffffffffffffff168373ffffffffffffffffffffffffffffffffffffffff161415801561181657508273ffffffffffffffffffffffffffffffffffffffff168173ffffffffffffffffffffffffffffffffffffffff1614155b801561182957506118278184610c6d565b155b1561186b57826040517fa9fbf51f0000000000000000000000000000000000000000000000000000000081526004016118629190611f41565b60405180910390fd5b81156118cd57838573ffffffffffffffffffffffffffffffffffffffff168273ffffffffffffffffffffffffffffffffffffffff167f8c5be1e5ebec7d5bd14f71427d1e84f3dd0314c0f7b2291e5b200ac8c7c3b92560405160405180910390a45b505b836004600085815260200190815260200160002060006101000a81548173ffffffffffffffffffffffffffffffffffffffff021916908373ffffffffffffffffffffffffffffffffffffffff16021790555050505050565b611932838383611b62565b6119e657600073ffffffffffffffffffffffffffffffffffffffff168373ffffffffffffffffffffffffffffffffffffffff16036119a757806040517f7e27328900000000000000000000000000000000000000000000000000000000815260040161199e919061202a565b60405180910390fd5b81816040517f177e802f0000000000000000000000000000000000000000000000000000000081526004016119dd929190612ab4565b60405180910390fd5b505050565b6119f58383611c23565b611a0a611a00610f3d565b6000858585611414565b505050565b600080600090507a184f03e93ff9f4daa797ed6e38ed64bf6a1f0100000000000000008310611a6d577a184f03e93ff9f4daa797ed6e38ed64bf6a1f0100000000000000008381611a6357611a62612a85565b5b0492506040810190505b6d04ee2d6d415b85acef81000000008310611aaa576d04ee2d6d415b85acef81000000008381611aa057611a9f612a85565b5b0492506020810190505b662386f26fc100008310611ad957662386f26fc100008381611acf57611ace612a85565b5b0492506010810190505b6305f5e1008310611b02576305f5e1008381611af857611af7612a85565b5b0492506008810190505b6127108310611b27576127108381611b1d57611b1c612a85565b5b0492506004810190505b60648310611b4a5760648381611b4057611b3f612a85565b5b0492506002810190505b600a8310611b59576001810190505b80915050919050565b60008073ffffffffffffffffffffffffffffffffffffffff168373ffffffffffffffffffffffffffffffffffffffff1614158015611c1a57508273ffffffffffffffffffffffffffffffffffffffff168473ffffffffffffffffffffffffffffffffffffffff161480611bdb5750611bda8484610c6d565b5b80611c1957508273ffffffffffffffffffffffffffffffffffffffff16611c0183610f00565b73ffffffffffffffffffffffffffffffffffffffff16145b5b90509392505050565b600073ffffffffffffffffffffffffffffffffffffffff168273ffffffffffffffffffffffffffffffffffffffff1603611c955760006040517f64a0ae92000000000000000000000000000000000000000000000000000000008152600401611c8c9190611f41565b60405180910390fd5b6000611ca383836000610f57565b9050600073ffffffffffffffffffffffffffffffffffffffff168173ffffffffffffffffffffffffffffffffffffffff1614611d175760006040517f73c6ac6e000000000000000000000000000000000000000000000000000000008152600401611d0e9190611f41565b60405180910390fd5b505050565b6000604051905090565b600080fd5b600080fd5b6000819050919050565b611d4381611d30565b8114611d4e57600080fd5b50565b600081359050611d6081611d3a565b92915050565b600060208284031215611d7c57611d7b611d26565b5b6000611d8a84828501611d51565b91505092915050565b60007fffffffff0000000000000000000000000000000000000000000000000000000082169050919050565b611dc881611d93565b8114611dd357600080fd5b50565b600081359050611de581611dbf565b92915050565b600060208284031215611e0157611e00611d26565b5b6000611e0f84828501611dd6565b91505092915050565b60008115159050919050565b611e2d81611e18565b82525050565b6000602082019050611e486000830184611e24565b92915050565b600081519050919050565b600082825260208201905092915050565b60005b83811015611e88578082015181840152602081019050611e6d565b60008484015250505050565b6000601f19601f8301169050919050565b6000611eb082611e4e565b611eba8185611e59565b9350611eca818560208601611e6a565b611ed381611e94565b840191505092915050565b60006020820190508181036000830152611ef88184611ea5565b905092915050565b600073ffffffffffffffffffffffffffffffffffffffff82169050919050565b6000611f2b82611f00565b9050919050565b611f3b81611f20565b82525050565b6000602082019050611f566000830184611f32565b92915050565b611f6581611f20565b8114611f7057600080fd5b50565b600081359050611f8281611f5c565b92915050565b60008060408385031215611f9f57611f9e611d26565b5b6000611fad85828601611f73565b9250506020611fbe85828601611d51565b9150509250929050565b600080600060608486031215611fe157611fe0611d26565b5b6000611fef86828701611f73565b935050602061200086828701611f73565b925050604061201186828701611d51565b9150509250925092565b61202481611d30565b82525050565b600060208201905061203f600083018461201b565b92915050565b600080fd5b600080fd5b7f4e487b7100000000000000000000000000000000000000000000000000000000600052604160045260246000fd5b61208782611e94565b810181811067ffffffffffffffff821117156120a6576120a561204f565b5b80604052505050565b60006120b9611d1c565b90506120c5828261207e565b919050565b600067ffffffffffffffff8211156120e5576120e461204f565b5b6120ee82611e94565b9050602081019050919050565b82818337600083830152505050565b600061211d612118846120ca565b6120af565b9050828152602081018484840111156121395761213861204a565b5b6121448482856120fb565b509392505050565b600082601f83011261216157612160612045565b5b813561217184826020860161210a565b91505092915050565b6000602082840312156121905761218f611d26565b5b600082013567ffffffffffffffff8111156121ae576121ad611d2b565b5b6121ba8482850161214c565b91505092915050565b6000602082840312156121d9576121d8611d26565b5b60006121e784828501611f73565b91505092915050565b6121f981611e18565b811461220457600080fd5b50565b600081359050612216816121f0565b92915050565b6000806040838503121561223357612232611d26565b5b600061224185828601611f73565b925050602061225285828601612207565b9150509250929050565b600067ffffffffffffffff8211156122775761227661204f565b5b61228082611e94565b9050602081019050919050565b60006122a061229b8461225c565b6120af565b9050828152602081018484840111156122bc576122bb61204a565b5b6122c78482856120fb565b509392505050565b600082601f8301126122e4576122e3612045565b5b81356122f484826020860161228d565b91505092915050565b6000806000806080858703121561231757612316611d26565b5b600061232587828801611f73565b945050602061233687828801611f73565b935050604061234787828801611d51565b925050606085013567ffffffffffffffff81111561236857612367611d2b565b5b612374878288016122cf565b91505092959194509250565b6000806040838503121561239757612396611d26565b5b60006123a585828601611f73565b92505060206123b685828601611f73565b9150509250929050565b7f4e487b7100000000000000000000000000000000000000000000000000000000600052602260045260246000fd5b6000600282049050600182168061240757607f821691505b60208210810361241a576124196123c0565b5b50919050565b60006060820190506124356000830186611f32565b612442602083018561201b565b61244f6040830184611f32565b949350505050565b7f4e6f2066756e6473000000000000000000000000000000000000000000000000600082015250565b600061248d600883611e59565b915061249882612457565b602082019050919050565b600060208201905081810360008301526124bc81612480565b9050919050565b600081905092915050565b50565b60006124de6000836124c3565b91506124e9826124ce565b600082019050919050565b60006124ff826124d1565b9150819050919050565b7f5769746864726177206661696c65640000000000000000000000000000000000600082015250565b600061253f600f83611e59565b915061254a82612509565b602082019050919050565b6000602082019050818103600083015261256e81612532565b9050919050565b60008190508160005260206000209050919050565b60006020601f8301049050919050565b600082821b905092915050565b6000600883026125d77fffffffffffffffffffffffffffffffffffffffffffffffffffffffffffffffff8261259a565b6125e1868361259a565b95508019841693508086168417925050509392505050565b6000819050919050565b600061261e61261961261484611d30565b6125f9565b611d30565b9050919050565b6000819050919050565b61263883612603565b61264c61264482612625565b8484546125a7565b825550505050565b600090565b612661612654565b61266c81848461262f565b505050565b5b8181101561269057612685600082612659565b600181019050612672565b5050565b601f8211156126d5576126a681612575565b6126af8461258a565b810160208510156126be578190505b6126d26126ca8561258a565b830182612671565b50505b505050565b600082821c905092915050565b60006126f8600019846008026126da565b1980831691505092915050565b600061271183836126e7565b9150826002028217905092915050565b61272a82611e4e565b67ffffffffffffffff8111156127435761274261204f565b5b61274d82546123ef565b612758828285612694565b600060209050601f83116001811461278b5760008415612779578287015190505b6127838582612705565b8655506127eb565b601f19841661279986612575565b60005b828110156127c15784890151825560018201915060208501945060208101905061279c565b868310156127de57848901516127da601f8916826126e7565b8355505b6001600288020188555050505b505050505050565b7f4d617820737570706c7920726561636865640000000000000000000000000000600082015250565b6000612829601283611e59565b9150612834826127f3565b602082019050919050565b600060208201905081810360008301526128588161281c565b9050919050565b7f496e636f7272656374204d4154494320616d6f756e7400000000000000000000600082015250565b6000612895601683611e59565b91506128a08261285f565b602082019050919050565b600060208201905081810360008301526128c481612888565b9050919050565b7f4e487b7100000000000000000000000000000000000000000000000000000000600052601160045260246000fd5b600061290582611d30565b91507fffffffffffffffffffffffffffffffffffffffffffffffffffffffffffffffff8203612937576129366128cb565b5b600182019050919050565b600081905092915050565b600061295882611e4e565b6129628185612942565b9350612972818560208601611e6a565b80840191505092915050565b600061298a828561294d565b9150612996828461294d565b91508190509392505050565b600081519050919050565b600082825260208201905092915050565b60006129c9826129a2565b6129d381856129ad565b93506129e3818560208601611e6a565b6129ec81611e94565b840191505092915050565b6000608082019050612a0c6000830187611f32565b612a196020830186611f32565b612a26604083018561201b565b8181036060830152612a3881846129be565b905095945050505050565b600081519050612a5281611dbf565b92915050565b600060208284031215612a6e57612a6d611d26565b5b6000612a7c84828501612a43565b91505092915050565b7f4e487b7100000000000000000000000000000000000000000000000000000000600052601260045260246000fd5b6000604082019050612ac96000830185611f32565b612ad6602083018461201b565b939250505056fea2646970667358221220846418e3242088325845c6469b98d544699de5f8a9a190d2f1263b718cd73d6864736f6c63430008140033",
  "linkReferences": {},
  "deployedLinkReferences": {}
}